:100000000C9434000C9463000C9463000C94630013
:100010000C9463000C9463000C9463000C946300D4
:100020000C9463000C9463000C9463000C946300C4
:100030000C9463000C9463000C9463000C946300B4
:100040000C9463000C9463000C9463000C946300A4
:100050000C9463000C9463000C9463000C94630094
:100060000C9463000C94630011241FBECFEFD8E002
:10007000DEBFCDBF0E9440000C945800F894FFCF23
:1000800081E084B981E085B92FE38DE093E02150D0
:1000900080409040E1F700C0000015B82FE38DE0EC
:1000A00093E0215080409040E1F700C00000EACF8B
:1000B000EC010E9468000E946700CE010E94690066
:0600C000CE010E94650064
:0400C6000C94000096
:0400CA000E943E0052
:0200CE00089593
:0200D000089591
:0200D20008958F
:00000001FF
