:100000000C944E000C94D3000C94D3000C94D300A9
:100010000C94D3000C94D3000C94D3000C94D30014
:100020000C94D3000C94D3000C94D3000C94D30004
:100030000C94D3000C94D3000C94D3000C94D300F4
:100040000C94D3000C94D3000C94D3000C94D300E4
:100050000C94D3000C94D3000C94D3000C94D300D4
:100060000C94D3000C94D3000C94D3000C94D300C4
:100070000C94D3000C94D3000C94D3008000830024
:10008000860089008C008F009200950098009B00EC
:100090000100010180010101020001B411241FBE11
:1000A000CFEFD8E0DEBFCDBFE0E9F0E040E017C021
:1000B000B591A59135912591059107FD0CC09591BC
:1000C0008591EF01F92FE82F05900D92A217B30744
:1000D000D9F7FE0104C01D92A217B307E1F7EC396E
:1000E000F40731F70E94A1000C94C200F894FFCFEE
:1000F0008A30910518F5FC01E25CFF4F0C94CD00AD
:100100008FE382B9089586E082B908958BE582B9BC
:1001100008958FE482B9089586E682B908958DE640
:1001200082B908958DE782B9089587E082B908956C
:100130008FE782B908958FE682B908958FE382B977
:02014000089520
:100142008FEF81B98EEF87B9309917C08091010185
:100152008130D1F710920101809100018F5F80936D
:100162000001809100018A3010F01092000180910C
:10017200000190E00E947800E7CF81E080930101C6
:02018200E3CFC9
:10018400EC010E94D8000E94D700CE010E94D90041
:06019400CE010E94D5001F
:0C019A00EE0FFF1F0590F491E02D09947A
:0401A6000C940000B5
:0401AA000E94760039
:0201AE000895B2
:0201B0000895B0
:0201B2000895AE
:0101B4000149
:00000001FF
