:100000000C943E000C9461000C9461000C9461000F
:100010000C9461000C9461000C9461000C946100DC
:100020000C9461000C9461000C9461000C946100CC
:100030000C9461000C9461000C9461000C946100BC
:100040000C9461000C9461000C9461000C946100AC
:100050000C9461000C9461000C9461000C9461009C
:100060000C9461000C9461000C9461000C9461008C
:100070000C9461000C9461000C94610011241FBE6B
:10008000CFEFD8E0DEBFCDBF0E944A000C945600EF
:04009000F894FFCF12
:100094008FEF81B98EEF87B9309903C08FE082B9B1
:0800A400FBCF80EF82B9F8CF19
:1000AC00EC010E9466000E946500CE010E94670070
:0600BC00CE010E9463006A
:0400C2000C9400009A
:0400C6000E9448004C
:0200CA00089597
:0200CC00089595
:0200CE00089593
:00000001FF
